S01200004C61623644326E616E6F2E73726563AB
S11300000C9434000C9446000C9446000C94460066
S11300100C9446000C9495000C9446000C944600F5
S11300200C9446000C9446000C9446000C94460034
S11300300C9446000C9446000C9446000C94460024
S11300400C9446000C9446000C9446000C94460014
S11300500C9446000C9446000C9446000C94460004
S11300600C9446000C94460011241FBECFEFD8E038
S1130070DEBFCDBF21E0A0E0B1E001C01D92A13000
S1130080B207E1F70E9453000C94DF000C940000C7
S1130090E8E6F0E0808184608083EDE6F0E0808132
S11300A08C6F808308958AB183708AB98BB18C6F09
S11300B08BB90E94BF000E9448007894809100018F
S11300C0813029F481E30E94D800109200018091CC
S11300D00001823029F482E30E94D80010920001CA
S11300E080910001833029F483E30E94D8001092A8
S11300F0000180910001843029F484E30E94D80037
S11301001092000180910001853029F485E30E945A
S1130110D8001092000180910001863079F686E3C0
S11301200E94D80010920001C9CF1F920F920FB6FF
S11301300F9211248F934A9903C081E080930001A8
S11301404B9903C082E0809300014C9903C083E083
S1130150809300014D9903C084E0809300014E997F
S113016003C085E0809300014F9903C086E080932B
S113017000018F910F900FBE0F901F9018958AB1B8
S113018082608AB98AB18E7F8AB91092C000E1EC8C
S1130190F0E0808188698083E2ECF0E08081866011
S11301A0808387E690E09093C5008093C40008950F
S11301B09091C00095FFFCCF8093C6000895F894F9
S10501C0FFCF6B
S9030000FC
